:020000040800F2
:1000000038070020910100088F170008F513000839
:100010008D170008830500080B1900080000000078
:10002000000000000000000000000000931700081E
:10003000B50600080000000091170008C31700086B
:10004000AB010008AB010008AB010008AB010008E0
:10005000AB010008AB010008AB010008AB010008D0
:10006000AB010008AB010008AB010008AB010008C0
:10007000AB010008AB010008AB010008AB010008B0
:10008000AB010008AB010008AB010008AB010008A0
:10009000AB010008AB010008AB010008AB01000890
:1000A000AB010008AB010008AB010008AB01000880
:1000B000AB010008AB010008AB010008AB01000870
:1000C000AB010008AB010008AB010008AB01000860
:1000D000AB010008AB010008AB010008AB01000850
:1000E000AB010008AB010008AB01000800F002F80A
:1000F00000F03FF80AA090E8000C82448344AAF183
:100100000107DA4501D100F034F8AFF2090EBAE880
:100110000F0013F0010F18BFFB1A43F0010318473B
:10012000E81B0000081C0000103A24BF78C878C102
:10013000FAD8520724BF30C830C144BF04680C60ED
:10014000704700000023002400250026103A28BF35
:1001500078C1FBD8520728BF30C148BF0B60704739
:10016000642900F07180002070471FB51FBD10B5D5
:1001700010BD00F0CCF91146FFF7F7FF01F09AFC33
:1001800000F0EAF903B4FFF7F2FF03BC00F0F2F964
:100190000948804709480047FEE7FEE7FEE7FEE71B
:1001A000FEE7FEE7FEE7FEE7FEE7FEE70448054957
:1001B000054A064B7047000025180008ED000008AE
:1001C00038010020380700203803002038030020C1
:1001D0000FB41CB5074B06AA7B44694600900598EE
:1001E00000F07DF90020694600F08CF91CBC5DF838
:1001F00014FB00002903000070B5044685690068FF
:10020000C10601D5302600E02026C00707D070BD0A
:10021000D4E9012130469047206A401C20626D1EBF
:10022000F6D570BD70B5044685690078C00707D162
:1002300070BDD4E9012120209047206A401C206233
:100240006D1EF6D570BD00002DE9F0410646002474
:1002500010687529314616A510D0AFF3008000282C
:1002600002DA404213A507E031688A0701D512A5DA
:1002700002E0490704D511A5012401E0AFF3008095
:1002800000210A2206F1240709E0B0FBF2FCB0FBD2
:10029000F2F302FB1C00303078541846491C002849
:1002A000F3D123462A463046BDE8F04100F0B9B804
:1002B000000000002D0000002B00000020000000C6
:1002C0002DE9F0474FF0000A89460446C0F820A007
:1002D0002046E1688847002876D0252806D0D4E952
:1002E00001219047206A401C2062F1E7E168204626
:1002F00000258847C4F81CA006460027C4F818A0AB
:100300002A2E09D0304601F011FB38B304EB8708E0
:10031000303EC8F8186019E059F8041B204604EB79
:1003200087029161E1688847012F064618D1E0698C
:10033000002820DA25F020051DE0D8F8180000EB91
:10034000800006EB40003038C8F818002046E1680D
:100350008847064601F0EAFA0028EED1012F0AD0BC
:100360002E2E08D12046E16888477F1C0646022FC2
:1003700045F02005C4DBA069002803DA404245F0BF
:100380000105A061E80701D025F01005B6B1A6F17E
:100390004100192802D8203645F400654A46314606
:1003A000204625604D46FFF7DBFE58B1012806D0F8
:1003B000ED1D25F0070000F1080989E704E005F1CB
:1003C000040985E730468AE7206ABDE8F0874FF0E8
:1003D000000200B5134694469646203922BFA0E895
:1003E0000C50A0E80C50B1F12001BFF4F7AF0907A1
:1003F00028BFA0E80C5048BF0CC05DF804EB890092
:1004000028BF40F8042B08BF704748BF20F8022BD4
:1004100011F0804F18BF00F8012B704770477047EC
:1004200070472DE9F0470D4699469246044600F183
:1004300024080168880604D5E06921F010012160D4
:1004400000E00120A84201DD471B00E00027A16970
:100450007A1902EB0900081AA0612078C00602D4BC
:100460002046FFF7C9FE002608E0D4E901211AF86A
:1004700006009047206A401C761C20624E45F4DB43
:100480002078C0060AD52046FFF7B6FE06E0D4E97C
:10049000012130209047206A401C2062381EA7F1BD
:1004A0000107F4DC07E0D4E9012118F805009047C2
:1004B000206A401C2062281EA5F10105F3DC2046BD
:1004C000FFF7B0FE2078000602D50220BDE8F087D5
:1004D0000120FBE701694A1C02610878704700B5FA
:1004E0008FB0CDE901310021059105497944CDE96D
:1004F000031011466846FFF7E3FE0FB000BD000091
:10050000E5FFFFFF0A6802F8010B0A6070477546B5
:1005100000F02CF8AE4605006946534620F007006F
:10052000854618B020B5FFF741FEBDE820404FF0EA
:1005300000064FF000074FF000084FF0000B21F0CD
:100540000701AC46ACE8C009ACE8C009ACE8C0099A
:10055000ACE8C0098D46704710B50446AFF3008083
:100560002046BDE81040FFF70DBE00000048704770
:10057000D400002001491820ABBEFEE7260002008F
:100580007047FEE72DE9FC5F0026484D8A4683460A
:10059000009602212846019601F007F90022022167
:1005A000284600F090F944F2506001F0C7F90122AA
:1005B0000221284600F087F9142001F0BFF902213A
:1005C000284601F0E7F83A4C2068466202E0406AAB
:1005D000642834D80221284600F070F901282068E8
:1005E000F5D0466202E0406A642828D802212846F5
:1005F00000F064F900282068F5D0466203E0206826
:10060000406A64281BD80221284600F057F90128C7
:10061000F5D000274FEA0D094FF000082068466228
:1006200002E0406A64280AD80221284600F046F910
:1006300000282068F5D0466204E0642802D9012031
:10064000BDE8FC9F0221284600F038F90128206807
:10065000406AF2D019F8071082B24906090E09F86B
:100660000710282A03D941F0010109F8071008F101
:100670000108B8F1080FD1DB7F1C052FCCDB9DF8FA
:1006800000109DF801009DF803300A189DF8020043
:1006900003441A449DF804309A4205D18AF80010A8
:1006A0008BF800000020CBE70220C9E700080140DA
:1006B000780000207047000070B5044600F008F98B
:1006C0000546601C02D004480078044400F000F99C
:1006D000401BA042FAD370BD140000202DE9F84F52
:1006E000DFF8B8910024A9F1040B23460F2709F184
:1006F000040AABF1040EC9E00125A5402A40AA4234
:100700007DD1674ED1F804C0ACEB0608B44532D0B9
:1007100014DCBCF1030F3AD009DCBCF1000F2AD085
:10072000BCF1010F1CD0BCF1020F31D11DE0BCF1B6
:10073000110F17D0BCF1120F2AD119E0B8F5881F9C
:1007400019D006DCB8F5803F15D0B8F5801F1FD151
:1007500011E0B8F5001F0ED0B8F5041F18D10AE05B
:10076000CB6815E0CB681B1D12E0CB6808330FE0A7
:10077000CB680C330CE08B682BB1012B4FF00803D6
:1007800003D0456104E0042302E0056100E000239A
:10079000FF2A01D8064601E000F104064FEA84056D
:1007A00001D9A5F12005D6F8008007FA05FC28EA52
:1007B0000C0803FA05F548EA0508C6F800804D68FC
:1007C000ED0062D5374DAE6946F00106AE61AD6908
:1007D00024F0030605F001050095334D06EB050CEA
:1007E000DCF80850A607360F07FA06F825EA0805D0
:1007F000DFF8B880404503D14FF0000817E044E02F
:10080000DFF8AC80404502D14FF001080FE0DFF87F
:10081000A480404502D14FF0020808E0DFF898803C
:10082000404502D14FF0030801E04FF0040808FAF8
:1008300006F848EA0508CCF808804D68D9F8006049
:10084000ED024D4601D5164300E096432E604D68FB
:10085000DAF80060AD02554601D5164300E0964334
:100860002E604D68DBF80060AD035D4601D5164390
:1008700000E096432E604D68DEF80060ED0375469B
:1008800001D5164300E096432E60641C0D682A468D
:10089000E5407FF431AFBDE8F88F00000804014067
:1008A000000011100010024000000140000801404B
:1008B000000C014000100140001401408068084015
:1008C00000D0012070470AB1016170470904FBE7BD
:1008D00001488068704700001400002070B50400D3
:1008E00025D094F83D00002520B984F83C502046DE
:1008F00000F04EF9242084F83D002068016821F0C2
:10090000010101602068016841F400410160206834
:10091000016821F40041016000F088FA4D4A6168E5
:10092000914201D84C4900E04C49884201D2012053
:1009300070BD4B492368B0FBF1F15E6826F03F06BD
:100940000E435E606368934206D94FF49673594331
:100950004FF47A73B1FBF3F12368491C1E6A26F049
:100960003F06314319626168914210D84900401E28
:10097000B0FBF1F2521CC2F30B02042A01D2042094
:1009800022E0B0FBF1F0401CC0F30B001CE0A268B9
:10099000F2B301EBC10303EB0116431EB3FBF6F305
:1009A0005B1C43F480431B0549D092B301EBC102A9
:1009B00002EB0111401EB0FBF1F0401CC0F30B0034
:1009C00040F4804040F400402168CA694CF6FF734F
:1009D0009A431043C861D4E90710014320680268B4
:1009E00022F0C00211430160D4E9030101432068F1
:1009F000826848F2FF339A4311438160D4E90501CC
:100A000008432168CA6822F0FF021043C86001E071
:100A10000EE016E02068016841F0010101602564E4
:100A2000202084F83D00256384F83E50002070BDEE
:100A300001EB4106431EB3FBF6F35B1CB3E7012059
:100A4000C2E701EB4101401EB0FBF1F0401CC0F3D6
:100A50000B00B7E7A086010080841E0000093D005E
:100A600040420F002DE9F84F1F4690468A46044643
:100A7000DDF82890FFF72CFF054694F83D0020286C
:100A80007FD11923012240492046009500F044FD02
:100A9000002876D194F83C00012872D0012084F817
:100AA0003C0020680168C90703D1016841F00101D9
:100AB00001602068016821F400610160212084F850
:100AC0003D00102084F83E0000262664C4F82480EF
:100AD0006785608D20852D48E0622B464A46514649
:100AE000204600F09FFC90B9206841698069009021
:100AF00036E02A464946204600F0B4FD50B1206C4D
:100B0000042804D12068016841F4007101600120CB
:100B1000BDE8F88F606A216800780861606A401C4F
:100B20006062618D491E6185218D491E89B22185D2
:100B300022685369DB435B070BD451B10078106125
:100B4000606A401C6062608D401E6085208D401E82
:100B500020852A464946204600F0B2FC0028CED126
:100B6000208D0028C5D154F83D0B016841F4007177
:100B70000160202004F81E09E67766770020C7E7A9
:100B8000FFE70220C4E70000020010000000FFFFA2
:100B900010B586B000210091019102910391006887
:100BA0000F4988421AD10F4CA06940F00800A0619B
:100BB000A069694600F008000490C020009012204F
:100BC0000190032003900848FFF788FDE06940F496
:100BD0000010E061E06900F40010049006B010BD60
:100BE0000054004000100240000C0140024881689F
:100BF000027811448160704714000020074810B546
:100C0000016841F010010160032000F067F80F2037
:100C100000F006F800F024F8002010BD002002408B
:100C200070B50D4D04464FF47A712878B1FBF0F0A1
:100C30000A490968B1FBF0F000F0BEFA48B9102C7F
:100C400007D200222146501E00F028F800206C60D8
:100C500070BD012070BD00001400002020000020A5
:100C60000C4808B5816941F001018161816901F099
:100C700001010091C16941F08051C161C06900F07A
:100C8000805000900448416821F0E06141F000711B
:100C9000416008BD0010024000000140F0B40E4B5E
:100CA0001B680C46C3F30223C3F10705042D00D9CA
:100CB0000425191D072901D2002300E0DB1E0126AF
:100CC00006FA05F1491E214099409E40761E1640C5
:100CD0003143F0BC00F01ABE0CED00E0064900F014
:100CE000070208684FF6FF03184040EA0220034A53
:100CF00010430860704700000CED00E00000FA05AA
:100D00002DE9F0470F46050061D0434E306800F0F2
:100D10000700B84209D2306820F00700384330603D
:100D2000306800F00700B84251D128683B4C810779
:100D300012D5400703D5606840F4E0606060287811
:100D4000000703D5606840F4605060606068A9687F
:100D500020F0F000084360602878C00728D0686859
:100D6000012810D02168022810D0890700292EDA26
:100D7000616821F0030101436160FFF7A9FD80462E
:100D800041F288390DE021688903EFE78901EDE739
:100D9000FFF79EFDA0EB0801494502D90320BDE8FD
:100DA000F0876068696800F00C00B0EB810FEFD14C
:100DB000306800F00700B8420BD9306820F0070017
:100DC00038433060306800F00700B84201D001209D
:100DD000E5E72878400705D56068E96820F4E06019
:100DE000084360602878000706D56068296920F408
:100DF000605040EAC100606000F028F86168084A6D
:100E0000C1F30311515CC8400649086006480068F8
:100E1000FFF706FF0020C2E700200240001002405A
:100E2000EE1C00082000002018000020044805499E
:100E300000684968044AC1F30221515CC840704708
:100E40002000002000100240FE1C00080E4A5168DD
:100E50000E4801F00C03042B11D0082B0FD10C48C5
:100E6000C1F38343C903C05C0AD55168084AC1F382
:100E70004041921E515C054A5043B0FBF1F070476F
:100E800004494843704700000010024000127A00F5
:100E9000DE1C000800093D002DE9F84F040070D069
:100EA0002078C04DC00749D06868C0F38100012890
:100EB00007D06868C0F38100022809D16868C003C0
:100EC00006D52868800339D560680028E7D035E06A
:100ED0006068B0F5803F0BD010B1B0F5A02F11D0F5
:100EE000286820F480302860286820F4802002E000
:100EF000286840F480302860606890B1FFF7E8FC13
:100F000006460AE0286840F480202860F0E700BF29
:100F1000FFF7DEFC801B642873D828688003F7D5B0
:100F20000CE0FFF7D5FC064605E000BFFFF7D0FC5C
:100F3000801B6428F0D828688003F7D420789A4E64
:100F400080074FF001094FF0000839D5686810F0AC
:100F50000C0F07D06868C0F38100022809D16868C7
:100F6000C00306D42868800714D52069012808D159
:100F700010E02069B0B1C6F80090FFF7A9FC074661
:100F800005E00AE1FFF7A4FCC01B0228C4D82868CA
:100F90008007F7D52868616920F0F80040EAC100B1
:100FA00028600DE0C6F80080FFF792FC074604E0D9
:100FB000FFF78EFCC01B022823D828688007F7D4CF
:100FC000207800072CD57948A169D9B1C0F80090E4
:100FD000FFF77EFC074604E0FFF77AFCC01B0228FF
:100FE0000FD8686A8007F7D571484FF4FA51006846
:100FF000B0FBF1F0009000BF0098411E0091FAD2C2
:101000000EE080E0C0F80080FFF762FC074604E0D5
:10101000FFF75EFCC01B022875D8686A8007F7D40A
:101020002078400760D5E8690027C00008D4E86947
:1010300040F08050E861E869012700F0805000909E
:101040005C480168C90513D40168834641F4807186
:101050000160FFF73DFC824606E000BFFFF738FC69
:10106000A0EB0A0064284ED8DBF80000C005F5D5D7
:10107000E06801280AD008B1052813D0286A20F0BA
:1010800001002862286A20F0040002E0286A40F08B
:1010900001002862E06841F2883B98B1FFF718FC34
:1010A00082460BE0286A40F004002862EEE700BFA9
:1010B000FFF70EFCA0EB0A0159455AD8286A8007B1
:1010C000F6D50CE0FFF704FC824605E0FFF700FCD4
:1010D000A0EB0A0159454CD8286A8007F6D41FB105
:1010E000E86920F08050E861E06988B36968C1F37D
:1010F0008101022944D00228C6F8608004D0FFF79D
:10110000E7FB044638E034E0FFF7E2FB074604E083
:10111000FFF7DEFBC01B02282BD828688001F7D41C
:10112000206AB0F5803F05D16868A16820F40030DE
:1011300008436860D4E908010843696821F4741120
:1011400008436860C6F86090FFF7C2FB044606E0FB
:1011500025E000BFFFF7BCFB001B022809D8286868
:101160008001F7D51BE000BFFFF7B2FB001B022890
:1011700002D90320BDE8F88F28688001F4D40EE07E
:101180000128F7D06868226A00F48031914204D1C6
:10119000616A00F47010884201D00120EAE7002063
:1011A000E8E7000000100240000042428004424292
:1011B000200000200070004010B5401EB0F1807F7C
:1011C00001D3012010BD4FF0E02460610F216017B2
:1011D00000F09CFB0020A06107202061002010BDD2
:1011E00070B590F83C20012A26D0012480F83C40BC
:1011F000022280F83D2003685A689D6822F070063C
:101200000A6832435A600D4B02689A4208D0B2F124
:10121000804F05D00A4B9A4202D00A4B9A4204D121
:10122000496825F080031943916080F83D40002112
:1012300080F83C10084670BD022070BD002C0140B3
:10124000000400400008004010B5040003D094F8EA
:101250003D0010B107E0012010BD002084F83C00E3
:10126000204600F01FF8022084F83D00211D206870
:1012700000F0DAFA012084F8460084F83E0084F891
:101280003F0084F8400084F8410084F8420084F86C
:10129000430084F8440084F8450084F83D000020B1
:1012A00010BD000008B50068B0F1804F08D10548B6
:1012B000C16941F00101C161C06900F00100009005
:1012C00008BD00000010024090F83D10012901D037
:1012D00001207047022180F83D1000680B498842C8
:1012E00008D0B0F1804F05D00949884202D00949A1
:1012F000884204D1816801F00701062903D0016802
:1013000041F001010160002070470000002C014005
:10131000000400400008004070B5044690F83C000E
:101320000025012817D0012684F83C60022084F8AB
:101330003D002068826822F0770222F47F428260BA
:101340000868502838D00DDC20284FD005DC90B339
:10135000102811D14AE0022070BD302846D0402824
:101360000AD13BE060282FD070280DD0B0F5805F07
:1013700003D0B0F5005F12D0012584F83D60002055
:1013800084F83C00284670BDCB68D1E90121206873
:1013900000F086FA2068816841F0770109E0CB68A7
:1013A000D1E90121206800F07BFA2068816841F4CE
:1013B00080418160E1E719E0CA684968206800F06F
:1013C00081FA5021206806E0CA684968206800F068
:1013D0008AFA6021206800F06DFACEE7CA68496891
:1013E000206800F06FFA40212068F4E72268014687
:1013F0001046F0E7FEE701684A69D24352050FD470
:101400006FF480624A61002140F8301F202242734D
:101410008173026942F00402026101730120704786
:1014200000207047F8B50446C06A1E460D461746B0
:10143000082807D0012805D010F5803F02D0206B86
:10144000122804D12068016841F4807101601346BC
:1014500000224FF001112046009600F05DF840B1E7
:1014600020680068C00502D54FF400702064032096
:10147000F8BD2069B0F5804F0ED00620216800EA43
:10148000D51040F0F000086133463A460B4920463B
:1014900000F08AF878B902E005F0FE0000E0E8B25A
:1014A00021680861054933463A46891F204600F005
:1014B0007BF80028DCD00120F8BD00000800010006
:1014C00070B516460D4604461EE02046FFF793FF12
:1014D00008B1012070BD681C16D0FFF7F9F9801B18
:1014E000A84200D885B920684069C04340070BD5A1
:1014F000002044F8300F20216173A073216941F06E
:10150000200121612073E4E720684069C04340075F
:10151000DBD4002070BD00002DE9F0479846174647
:101520000D460446C1F30746DDF820902AE000BFCF
:10153000B8F1FF3F26D0FFF7CBF9A0EB09014145F9
:1015400002D8B8F1000F1DD12068012E16D0806995
:1015500025EA00000004000C12D00020B84211D18E
:10156000002044F8300F20216173A073216941F0FD
:101570002001216120730120BDE8F0874069E7E781
:101580000120EBE72068012E0AD0806925EA0000DF
:101590000004000C06D00020B842C9D00020EBE7C0
:1015A0004069F3E70120F7E72DE9F0479846164632
:1015B0000D4604464FF000094FF0200AC1F30747DB
:1015C00023E020684069C043400515D420680168C5
:1015D00041F40071016021686FF480604861C4F8D3
:1015E000309084F83DA084F83E90216C41F00401D5
:1015F000216484F83C9021E0701C06D0FFF768F964
:10160000A0EB0800B04203D816B1012F1FD021E093
:101610002068012F15D0806925EA00000004000C25
:1016200018D000BF44F8309F84F80DA084F80E90C5
:10163000216941F02001216184F80C900120BDE86E
:10164000F087406925EA00000004000CEAD1206818
:10165000406901E02068806925EA00000004000C70
:10166000AFD1ECE770B516460D4604461EE02046A5
:10167000FFF7C1FE08B1012070BD681C16D0FFF74E
:1016800027F9801BA84200D885B920684069C0436B
:1016900000060BD5002044F8300F20216173A073A1
:1016A000216941F0200121612073E4E7206840694D
:1016B000C0430006DBD4002070BD000030B585B00B
:1016C000002417480094019402940394816941F026
:1016D00020018161816901F020010491816941F05B
:1016E00004018161816901F004010491816941F083
:1016F0000801816180690B4D00F008000490002210
:1017000002212846FFF7DFF802210120CDE9001071
:10171000CDE9024169462846FEF7E0FF05B030BD3D
:10172000001002400008014010B586B000241648A1
:10173000009401940294039404944FF08041059422
:1017400001604721C0E901144FF6FF71C0E903149D
:101750008461FFF779FD08B172B6FEE74FF480505F
:10176000009069460848FFF7D7FD08B172B6FEE75A
:10177000049404A904480594FFF732FD002801D021
:1017800072B6FEE706B010BD78000020FEE7FEE767
:10179000704770471FB50022CDE900120121CDE945
:1017A00002126946FEF79AFF1FBD1FB50022009185
:1017B0000121CDE90112022103916946FEF78EFF56
:1017C0001FBDFFF713BA30B58FB028216846FEF76A
:1017D000FEFD14210AA8FEF7FAFD01210804CDE957
:1017E00000100024029402250491CDE907504FF423
:1017F000E01009906846FFF74FFB08B172B6FEE7AC
:101800000F20CDE90A054FF48060CDE90C4002219C
:101810000AA80E94FFF774FA002801D072B6FEE70A
:101820000FB030BD70470000F0B50268194B1A4C7C
:101830001A4D4FF08047984205D0B84203D0A042DD
:1018400001D0A84203D122F070064A683243984280
:1018500005D0B84203D0A04201D0A84203D122F45F
:101860004074CA6822434C6922F08002224302601D
:101870008A68C2620A688262984201D1096901637A
:10188000012141610169C90703D0016921F001010A
:101890000161F0BD002C0140000400400008004040
:1018A00010B5846842EA032224F47F440A432243A9
:1018B000826010BD826822F070020A4342F0070184
:1018C0008160704710B5036A046A24F00104046261
:1018D000846924F0F00444EA021423F00A020A4363
:1018E0008461026210BD10B5036A046A24F010041A
:1018F0000462846923F0A00324F4704444EA0232B1
:1019000043EA01118261016210BDFEE70907090E79
:10191000002804DB00F1E02080F80014704700F09C
:101920000F0000F1E02080F8141D704730380A28BD
:1019300001D20120704700207047000004490022B6
:101940000B685A6209684A6A8242FCD370470000F9
:101950007800002010B5802000F062F800242020DC
:1019600000F07EF8641C462CF9DB10BD70B50D4606
:1019700000F00700402141EAC00000F051F80024C7
:10198000285D00F06DF8641C082CF9DB70BD10B503
:101990003220FEF791FE302000F042F80520FEF7DD
:1019A0008BFE302000F03CF80120FEF785FE302051
:1019B00000F036F80A20FEF77FFE202000F030F815
:1019C0000A20FEF779FE282000F02AF80120FEF711
:1019D00073FE082000F024F80120FEF76DFE0120C0
:1019E00000F01EF80120FEF767FE0120FEF764FEFE
:1019F000062000F015F80120FEF75EFEBDE810405D
:101A00000C2000F00DB810B1012805D102E041F022
:101A1000800101E041F0C001C8B200F001B800004F
:101A20001CB500F0F00141F00C028DF8042041F0EB
:101A3000080100018DF8051040F00C018DF806102A
:101A400040F008008DF8070064200090042301AAEC
:101A50004E210248FFF706F81CBD000024000020BC
:101A60001CB500F0F00141F00D028DF8042041F0AA
:101A7000090100018DF8051040F00D018DF80610E8
:101A800040F009008DF8070064200090042301AAAB
:101A90004E210248FEF7E6FF1CBD00002400002096
:101AA00010B5044602E0641CFFF7DAFF2078002836
:101AB000F9D110BDFFF7A2F8FFF785FEFFF7FEFD95
:101AC000FFF732FE5D485C494FF4804201605C499B
:101AD000416000218160C0E9031241618161C161FF
:101AE0000162FEF7FBFE08B172B6FEE753485430C0
:101AF000FFF7EAFBFFF74BFFFFF72CFF51490020F0
:101B0000FFF734FF00210846FFF77DFF4EA0FFF7E7
:101B1000C7FF00210120FFF776FF50A0FFF7C0FFAD
:101B200040F2DC50FEF7C8FDFFF714FF454C4FF4C0
:101B30007A750C3C43490B39481EFEF723FD60B112
:101B400000210846FFF75FFF49A0FFF7A9FF00212A
:101B50000120FFF758FF4AA048E02078A17888428A
:101B600000D2A070E178884200D9E07060782179D5
:101B7000884200D220716179884200D96071FEF7F5
:101B8000A7FEA168401A41F28831884208D9A0799D
:101B900090B30020A071FEF79BFEA060FFF7DAFE75
:101BA000A0794FF000010028084628D0FFF72BFF4E
:101BB0002248E378A27837A19C30FEF709FB1F4842
:101BC0009C30FFF76DFF0020FFF74AFF34A0FFF7BE
:101BD00067FF00210120FFF716FF1848637922797B
:101BE00030A19C30FEF7F4FA14489C30FFF758FF00
:101BF0002846FEF761FD9DE7FFE70120CAE7FFF7F2
:101C000002FF0E4822782BA19C30FEF7E1FA0B4828
:101C10009C30FFF745FF0020FFF722FF29A0FFF7C8
:101C20003FFF00210120FFF7EEFE0448627826A165
:101C30009C30FEF7CDFAD7E7005400402400002086
:101C4000A08601000C0000205452414D20444F203A
:101C50004E4849455420444F000000004241542062
:101C6000444155204B484F4920444F4E4700000007
:101C70004C4F492043414D204249454E21202000F0
:101C80004B49454D20545241204441592E2E2E207F
:101C900000000000543A2532642D202532640000F3
:101CA00043200000483A2532642D20253264202547
:101CB000252000004E6869657420646F3A20253243
:101CC000642E300043000000446F20616D2020200E
:101CD0003A202532642E302525200000010202031F
:101CE0000405060708090A0B0C0D0E0F1010000062
:101CF00000000000000001020304060708090000BC
:101D00000000010203040000281D0008000000205C
:101D100024000000280100084C1D000824000020B9
:101D20001407000044010008000063006300000085
:101D30000000000006090906000000000100000084
:0C1D4000100000000000000000127A00FB
:04000005080000ED02
:00000001FF
